:020000040800F2
:1000000068080020450100088B110008171100083E
:1000100089110008DD010008C51A00080000000071
:10002000000000000000000000000000C1160008F1
:10003000DF010008000000008D110008C316000851
:100040005F0100085F0100085F0100085F01000810
:100050005F0100085F0100085F0100085F01000800
:100060005F0100085F0100085F0100085F010008F0
:100070005F0100085F0100085F0100085F010008E0
:100080005F0100085F0100085F0100085F010008D0
:100090005F0100085F0100085F0100085F010008C0
:1000A0005F0100085F0100085F0100085F010008B0
:1000B0005F0100085F0100085F0100085F010008A0
:1000C0005F0100085F0100085F0100085F01000890
:1000D0005F010008B91A00085F0100085F0100080D
:1000E0005F0100085F0100085F0100085F01000870
:1000F0005F0100085F0100085F0100085F01000860
:100100005F0100085F0100085F0100085F0100084F
:100110005F0100085F0100085F0100085F0100083F
:100120005F0100085F0100085F0100085F0100082F
:10013000DFF80CD000F040F800480047951C00089C
:10014000680800200648804706480047FEE7FEE7AB
:10015000FEE7FEE7FEE7FEE7FEE7FEE7FEE7FEE777
:100160001717000831010008D2B201E000F8012B96
:10017000491EFBD270470022F6E710B513460A4627
:1001800004461946FFF7F0FF204610BD30B50B4678
:10019000014600202022012409E021FA02F59D42B7
:1001A00005D303FA02F5491B04FA02F52844151E8B
:1001B000A2F10102F1DC30BD064C074D06E0E0681B
:1001C00040F0010394E8070098471034AC42F6D39E
:1001D000FFF7B2FF3C1F00085C1F0008FEE77047F6
:1001E00072B6FEE730B5034600200246074D09E02F
:1001F0009C5C521C84EA102492B235F8144084EAC4
:10020000002080B28A42F3D330BD0000241D0008D4
:1002100010B590F821100022022905D00421816335
:1002200080F82020012010BD01680B6823F00E0328
:100230000B6001680B6823F001030B6090F84030FD
:10024000C46B012101FA03F3636080F8211080F888
:100250002020104610BD00002DE9F05F90F821101D
:100260000024022903D004218163012485E0016870
:100270000A6822F00E020A6001680A6822F0010290
:100280000A603F4E3E4FB215DFF8F4C0DFF8F09041
:10029000DFF8ECA0DFF8E8B0DFF8E4E00168783FD1
:1002A00013011502ACF1640CA9F15009AAF13C0A42
:1002B000ABF1280BAEF1140E4FF48018B14227D9E0
:1002C000B9420ED0614512D049451DD0514518D0D4
:1002D000594518D0714501D1424615E0294EB14229
:1002E00001D1012210E0274E1436B14201D1102273
:1002F0000AE0244E2836B14206D0224A3C329142CE
:1003000001D11A4600E02A461E49091F0A602BE067
:10031000B94213D0614517D0494522D051451DD06F
:1003200059451DD0714501D142461AE0B14202D172
:100330004FF0807215E0134EB14201D1012210E05E
:10034000104E1436B14201D110220AE00D4E28366B
:10035000B14206D00B4A3C32914201D11A4600E02C
:100360002A46074980394A60012180F8211000217E
:1003700080F82010416B01B188472046BDE8F09F0E
:1003800080000240080402402DE9F84FDFF8C891D0
:10039000002409F1040A0AF1040B23460F270BF18C
:1003A000040ED1E00125A54006EA0502AA4276D155
:1003B000DFF8A8C14E68A6EB0C0866452BD00DDC13
:1003C000032E34D005DC36B3012E19D0022E2FD1E6
:1003D0001BE0112E16D0122E2AD119E0B8F5881F75
:1003E00019D006DCB8F5803F15D0B8F5801F1FD1B5
:1003F00011E0B8F5001F0ED0B8F5041F18D10AE0BF
:10040000CB6815E0CB681B1D12E0CB6808330FE00A
:10041000CB680C330CE08B682BB1012B4FF0080339
:1004200003D0456104E0042302E0056100E00023FD
:10043000FF2A01D8064601E000F104064FEA8405D0
:1004400001D9A5F12005D6F8008007FA05FC28EAB5
:100450000C0803FA05F548EA0508C6F800804D685F
:10046000ED0070D53E4DAE6946F00106AE61AD6956
:1004700024F0030605F0010500953A4D06EB050C46
:10048000DCF80850A607360F07FA06F825EA080533
:10049000DFF8D480404503D14FF0000825E052E05A
:1004A000DFF8C880404502D14FF001081DE0DFF8B9
:1004B000C080404502D14FF0020816E0DFF8B4805A
:1004C000404502D14FF003080FE0DFF8AC80404513
:1004D00002D14FF0040808E0DFF8A080404502D1C7
:1004E0004FF0050801E04FF0060808FA06F848EA60
:1004F0000508CCF808804D68D9F80060ED034D463A
:1005000001D5164300E096432E604D68DAF800608E
:10051000AD03554601D5164300E096432E604D6865
:10052000DBF80060ED025D4601D5164300E096431E
:100530002E604D68DEF80060AD02754601D51643A9
:1005400000E096432E60641C0A681646E2407FF481
:1005500029AFBDE8F88F0000000401400000111031
:10056000001002400000014000080140000C014062
:10057000001001400014014000180140001C01401F
:100580000148806870470000100000200248816820
:10059000027811448160704710000020074810B5B0
:1005A000016841F010010160032000F075F800209F
:1005B00000F006F800F024F8002010BD00200240F2
:1005C00070B50D4D04464FF47A712878B1FBF0F008
:1005D0000A490968B1FBF0F000F0ECFA48B9102CB8
:1005E00007D200222146501E00F036F800206C6031
:1005F00070BD012070BD0000100000201C00002014
:100600000C4808B5816941F001018161816901F0FF
:1006100001010091C16941F08051C161C06900F0E0
:10062000805000900448416821F0E06141F0007181
:10063000416008BD0010024000000140002809DBB5
:1006400000F01F02012191404009800000F1E020EC
:10065000C0F8001170470000F0B40E4B1B680C4648
:10066000C3F30223C3F10705042D00D90425191D86
:10067000072901D2002300E0DB1E012606FA05F15E
:10068000491E214099409E40761E16403143F0BCE1
:1006900001F02ABA0CED00E0064900F007020868F4
:1006A0004FF6FF03184040EA0220034A1043086057
:1006B000704700000CED00E00000FA052DE9F0475E
:1006C0000F46050061D0434E306800F00700B84285
:1006D00009D2306820F0070038433060306800F0FD
:1006E0000700B84251D128683B4C810712D540071A
:1006F00003D5606840F4E06060602878000703D5A7
:10070000606840F4605060606068A96820F0F000A4
:10071000084360602878C00728D06868012810D096
:100720002168022810D0890700292EDA616821F09B
:10073000030101436160FFF723FF804641F28839DE
:100740000DE021688903EFE78901EDE7FFF718FF66
:10075000A0EB0801494502D90320BDE8F087606895
:10076000696800F00C00B0EB810FEFD1306800F049
:100770000700B8420BD9306820F0070038433060DA
:10078000306800F00700B84201D00120E5E7287882
:10079000400705D56068E96820F4E06008436060C0
:1007A0002878000706D56068296920F4605040EA7F
:1007B000C100606000F038F86168084AC1F30311B5
:1007C000515CC8400649086006480068FFF7F8FE1B
:1007D0000020C2E70020024000100240241F000851
:1007E0001C000020140000200448054900684968E6
:1007F000044AC1F30221515CC84070471C0000202C
:1008000000100240341F0008044805490068496888
:10081000044AC1F3C221515CC84070471C0000204B
:1008200000100240341F000812A185B00FC98DE8E6
:100830000F0014A0144A006804905168134801F096
:100840000C03042B10D0082B0ED1C1F38343C90332
:100850001DF803000AD5516804AAC1F34041515C58
:100860000A4A5043B0FBF1F005B0704708494843CD
:10087000FAE7000002030405060708090A0B0C0D3D
:100880000E0F1010010200000010024000127A004A
:1008900000093D002DE9F84F040070D02078C04DCC
:1008A000C00749D06868C0F38100012807D0686894
:1008B000C0F38100022809D16868C00306D5286802
:1008C000800339D560680028E7D035E06068B0F56E
:1008D000803F0BD010B1B0F5A02F11D0286820F4C4
:1008E00080302860286820F4802002E0286840F4E6
:1008F00080302860606890B1FFF742FE06460AE04B
:10090000286840F480202860F0E700BFFFF738FE39
:10091000801B642873D828688003F7D50CE0FFF7A4
:100920002FFE064605E000BFFFF72AFE801B642865
:10093000F0D828688003F7D420789A4E80074FF0CB
:1009400001094FF0000839D5686810F00C0F07D086
:100950006868C0F38100022809D16868C00306D422
:100960002868800714D52069012808D110E0206983
:10097000B0B1C6F80090FFF703FE074605E00AE1B4
:10098000FFF7FEFDC01B0228C4D828688007F7D5F2
:100990002868616920F0F80040EAC10028600DE095
:1009A000C6F80080FFF7ECFD074604E0FFF7E8FD1E
:1009B000C01B022823D828688007F7D420780007B6
:1009C0002CD57948A169D9B1C0F80090FFF7D8FDBE
:1009D000074604E0FFF7D4FDC01B02280FD8686A61
:1009E0008007F7D571484FF4FA510068B0FBF1F079
:1009F000009000BF0098411E0091FAD20EE080E006
:100A0000C0F80080FFF7BCFD074604E0FFF7B8FD23
:100A1000C01B022875D8686A8007F7D42078400781
:100A200060D5E8690027C00008D4E86940F080502C
:100A3000E861E869012700F0805000905C48016897
:100A4000C90513D40168834641F480710160FFF742
:100A500097FD824606E000BFFFF792FDA0EB0A007B
:100A600064284ED8DBF80000C005F5D5E068012801
:100A70000AD008B1052813D0286A20F001002862A6
:100A8000286A20F0040002E0286A40F00100286291
:100A9000E06841F2883B98B1FFF772FD82460BE0B7
:100AA000286A40F004002862EEE700BFFFF768FD07
:100AB000A0EB0A0159455AD8286A8007F6D50CE000
:100AC000FFF75EFD824605E0FFF75AFDA0EB0A0145
:100AD00059454CD8286A8007F6D41FB1E86920F040
:100AE0008050E861E06988B36968C1F38101022937
:100AF00044D00228C6F8608004D0FFF741FD0446C8
:100B000038E034E0FFF73CFD074604E0FFF738FD2E
:100B1000C01B02282BD828688001F7D4206AB0F5C2
:100B2000803F05D16868A16820F400300843686000
:100B3000D4E908010843696821F474110843686026
:100B4000C6F86090FFF71CFD044606E025E000BFF4
:100B5000FFF716FD001B022809D828688001F7D589
:100B60001BE000BFFFF70CFD001B022802D9032089
:100B7000BDE8F88F28688001F4D40EE00128F7D092
:100B80006868226A00F48031914204D1616A00F4FD
:100B90007010884201D00120EAE70020E8E7000059
:100BA0000010024000004242800442421C0000202B
:100BB0000070004010B5401EB0F1807F01D30120CD
:100BC00010BD4FF0E02460610F21601700F08CFF32
:100BD0000020A06107202061002010BD70477047F1
:100BE00070B5044600680126C16821F4F071C16047
:100BF0002068416921F001014161206B012804D185
:100C00002068C16821F01001C160606B002538B117
:100C100021684969090602D51E49416300E0456320
:100C2000A06B38B121684969490602D51A49416368
:100C300000E045632068416909060CD5416921F04F
:100C400080014161606B30B1FFF706FB10B1606B52
:100C5000456300E000262068416949060BD54169DB
:100C600021F040014161A06B28B1FFF7F5FA78B19E
:100C7000A06B456300E05EB1E584E5852564202036
:100C800084F83D0084F83E0025632046FFF7A7FF67
:100C9000002070BD5118000825180008704700009A
:100CA000F8B5026804461068D168536910F00F0F58
:100CB0004FF0000553D003F0010601F4907737435D
:100CC0005FD0C20705D0CA0503D5226C42F00102ED
:100CD0002264420705D5DA0703D0226C42F00202F3
:100CE0002264820705D5DA0703D0226C42F00402A1
:100CF0002264020707D501F02002324303D0226CA0
:100D000042F008022264226C002A34D0800604D506
:100D1000880602D5204600F0C9FD20684069216C94
:100D2000C0F38010090700D430B3204600F0A6FDC0
:100D30002068416949061BD5416921F040014161A4
:100D4000A06BA8B158494163A06BFFF785FA002852
:100D500011D0A06B416B01B0BDE8F040084783069D
:100D60000FD58B060DD52046BDE8F84000F09EBD9E
:100D70002046FFF793FFF8BD2046FFF78FFF25645D
:100D8000F8BD266B2023012E52D1C60650D5CE06C3
:100D90004ED5106850680090506940062AD5A16B66
:100DA000086840680004000CEAD0A68D8642E7D9A6
:100DB000E0858869202818D0D06820F48070D06041
:100DC0002068416921F0010141612068416921F0F9
:100DD0004001416184F83E3025632068C16821F0FC
:100DE0001001C160A06BFFF713FAA08DE18D401ACE
:100DF00081B219E0A08DE18D401A81B2E08D00280A
:100E0000BED00029BCD0D06820F49070D06020689B
:100E1000426922F00102426184F83E302563206875
:100E2000C26822F01002C2602046FFF7D7FEF8BD6C
:100E300005062BD50D0629D594F83D002128F6D1BD
:100E4000A068B0F5805F01D12069B0B1206A411C73
:100E50002162216800784860E08C401E0004000C8C
:100E6000E084E4D12068C16821F08001C16020687D
:100E7000C16841F04001C160F8BD206A0088C0F33C
:100E800008005060206A801C2062E5E74006F3D528
:100E90004806F1D5D168204621F04001D16084F8A0
:100EA0003D3000F037F9F8BD1518000870B50400A2
:100EB00004D094F83D00002510B106E0012070BD7B
:100EC00084F83C50204600F023F8242084F83D00AC
:100ED0002068C16821F40051C160204600F042FD45
:100EE0002068016921F4904101612068416921F085
:100EF0002A0141612068C16841F40051C160256444
:100F0000202084F83D0084F83E00002070BD0000E1
:100F100030B585B0002400940194029403940068D5
:100F2000184988422CD11848816941F48041816177
:100F3000816901F480410491816941F0040181617A
:100F40008069124D00F0040004904FF4007000908E
:100F5000022001900320039069462846FFF714FA07
:100F60002815CDE90004694628460294FFF70CFADB
:100F7000002211462520FFF76FFB2520FFF75EFBBF
:100F800005B030BD003801400010024000080140AB
:100F900090F83E30202B0ED159B152B190F83C3030
:100FA000012B08D0012380F83C300023036300F0BC
:100FB00035BD0120704702207047000070B5006801
:100FC0001249884218D1124C2078FF2815D2401CB3
:100FD000C0B2104D2070291801220F48FFF7D8FF2A
:100FE000FFF7CEFA0D490E4A086020782918104400
:100FF00011F8011C00F8011C70BDBDE870400449E7
:101000000122891C0448FFF7C3BF000000380140DB
:101010000000002021030020200400200C000020FC
:10102000240000202DE9F843044690F83D001F46B7
:1010300016460D4620284CD1C5B1BEB194F83C00EF
:10104000012846D0012084F83C004FF00008C4F885
:101050004080212084F83D00FFF792FAA684814663
:10106000E684A068B0F5805F03D004E00120BDE80D
:10107000F883206928B12E465FF0000584F83C8093
:101080000EE00026FAE78021204600F0E2FCA0B93D
:10109000AEB116F8010B21684860E08C401EE08478
:1010A000E08C4B464FF0000200970028EBD14FF048
:1010B0004001204600F0CDFC30B10320D7E735F8E1
:1010C000020BC0F30800E6E7202084F83D00002072
:1010D000CDE70220CBE790F83D30202B18D1A9B105
:1010E000A2B190F83C30012B12D001628284C284FC
:1010F00000210164212280F83D2080F83C10006826
:10110000C16841F08001C160002070470120704734
:10111000022070477047FEE700B585B000200190BF
:10112000029003900848816941F00401816180695F
:10113000694600F004000490012000900348FFF786
:1011400023F905B000BD0000001002400008014076
:101150000C4810B50A4901604FF4E13141600021AB
:1011600081600C22C160C0E904128161C161FFF796
:101170009DFE002803D0BDE81040FFF731B810BD38
:101180000038014020040020FEE7FEE77047000021
:101190001CB5102871D1784CE079302837D006DCA6
:1011A000012809D0102809D021280AD12DE03128A2
:1011B0002FD0FF2805D12EE070A000E072A000F033
:1011C00083FC207A617A00EB012081B271A000F0EB
:1011D0007BFCA07AE17A00EB012001B272A000F062
:1011E00073FC217B75A000F06FFC607BA17B00EBA2
:1011F0000120ADF80000BDF80000002875D0BDF852
:101200000000C00709D070A05FE072A0D7E774A00B
:10121000D5E778A0D3E77BA0D1E7BDF80000800731
:1012200001D57CA051E0BDF80000400701D57CA0AD
:101230004BE0BDF80000000701D57CA045E0BDF8FB
:101240000000C00601D57CA03FE0BDF8000080068C
:1012500001D57CA039E0BDF80000400601D57CA096
:1012600033E0BDF80000000601D57CA02DE0BDF8FC
:101270000000C00502D57CA027E07BE0BDF800009F
:10128000800501D57AA020E0BDF80000400501D519
:101290007AA01AE0BDF80000000501D57AA014E09C
:1012A000BDF80000C00401D57CA00EE0BDF8000030
:1012B000800401D57CA008E0BDF80000400403D400
:1012C000BDF80000000402D57BA000F0FDFBE07B30
:1012D0008DF80400BDF80000002849D09DF80400F6
:1012E000C00704D074A02BE0FFE775A0EDE79DF8E0
:1012F0000400800701D576A022E09DF80400400795
:1013000001D578A01CE09DF80400000701D57AA063
:1013100016E09DF80400C00601D57AA010E09DF803
:101320000400800601D57BA00AE09DF80400400679
:1013300001D57CA004E09DF80400000602D57BA046
:1013400000F0C2FB94F910107AA000F0BDFB94F9F4
:1013500011107FA000F0B8FB94F9121083A000F0E8
:10136000B3FB94F91310BDE81C4086A000F0ACBBA1
:101370008BA0E5E71CBD0000220200200A20B7C5B3
:10138000B5E7C4A3CABD00000A20B3E4B5E7C4A30F
:10139000CABD00000A20CAB5CAB1B5E7D1B9A3BA1F
:1013A00025646D56000000000A20CAB5CAB1B5E731
:1013B000C1F7A3BA25646D41000000000A20534F15
:1013C00043A3BA25640000000A20B7C5B5E7B5CD30
:1013D000CEC200000A20B1A3BBA4C4A3CABD0000B2
:1013E0000A20B4FDBBFACEDECAE4B3F6C4A3CABD7C
:1013F000000000000A20B4FDBBFAD4A4B7C5C4A302
:10140000CABD00000A20B9CAD5CFD0E8B7B5B3A786
:10141000000000000A20B7C5B5E7B8DFCEC2000063
:101420000A20B3E4B5E7B8DFCEC200000A20B3E477
:10143000B5E7B5CDCEC200000A20B7C5B5E7B9FD06
:10144000C1F700000A20B7C5B5E7C7B7D1B900009A
:101450000A20B3E4B5E7B9FDC1F700000A20B3E400
:10146000B5E7B9FDD1B900000A20B6CCC2B700007B
:101470000A20CEC2B2EEB9FDB4F300000A20D1B901
:10148000B2EEB9FDB4F300000A20D6C7C4DCB3E461
:10149000B5E7CDA8D0C5B3ACCAB100000A20494316
:1014A000B1A3BBA4000000000A20D4A4B7C5B5E7CF
:1014B000CAA7B0DC000000000A20B1A3C1F40000FC
:1014C0000A20B1A3BBA4D7B4CCACD5FDB3A3000014
:1014D0000A20B2C9D1F9CFDFB6CFCFDFA1A2D0E9C0
:1014E000BAB800000A20CEC2B6C8B4ABB8D0C6F7AE
:1014F000CBF0BBB5000000000A204943CBF0BBB5E0
:10150000000000000A20B3E4B5E74D4F53CBF0BB19
:10151000B50000000A20B7C5B5E74D4F53CBF0BB6F
:10152000B50000000A20CAA7BAE200000A20CAA734
:10153000D0A700000A20B5B1C7B0B5E7D0BED7EE3E
:10154000B8DFCEC2B6C8A3BA2564B6C80000000092
:101550000A20B5B1C7B0B5E7D0BED7EEB5CDCEC283
:10156000B6C8A3BA2564B6C8000000000A20B5B109
:10157000C7B04D4F53D7EEB8DFCEC2B6C8A3BA2519
:1015800064B6C8000A20B5B1C7B0504342D7EEB820
:10159000DFCEC2B6C8A3BA2564B6C80A00000000F0
:1015A0000A20CEDEB9CAD5CF000000002DE9F047F1
:1015B0003C4E80460F4630784FF4FA75B0B9FEF7CE
:1015C000DFFF394C2168401AA8420CD9707850B11D
:1015D000032808D23946404600F09EF8FEF7D0FFB7
:1015E0002060BDE8F08730780028FAD0FEF7C8FF09
:1015F0002E490968401AA842F3D92D48FFF7F0FA9E
:10160000DFF8B090002409F5FF78A24615E019F83C
:10161000042000254846AA2A09D102195378552BDF
:1016200005D19378BB2B02D1D07803280FD0891E27
:101630008C4201DD86F800A0641C31788C42E6DD26
:10164000BDE8F04701221C491948FFF7A1BC274615
:1016500023E000BF19F8071008F805106D1C042DD1
:101660001ADDE81E81B21548FEF7BCFD08EB050245
:1016700080B212F8033CC1B24FEA102C8B420BD15E
:1016800012F8021C614507D198F80400FFF780FDAD
:1016900086F800A086F801A07F1C30788742D9DD4B
:1016A000CAE7000000000020080000200C00002015
:1016B000200400202400002021030020220200201A
:1016C0007047FEF763BF10B590B028216846FEF75B
:1016D00052FD14210AA8FEF74EFD022000900120C1
:1016E000049010200024059007946846FFF7D2F874
:1016F00008B172B6FEE70F20CDE90A040C940D94F0
:1017000000210AA80E94FEF7D9FF002801D072B676
:10171000FEE710B010BD70472DE9F0413A4BBB25F4
:1017200003265A780127521C5A7000225523374C41
:101730004FF0AA0C152817D00DDC112814D005DCA9
:1017400038B3022840D0102849D10DE013280BD01F
:10175000142844D108E0192806D016DC162803D036
:10176000172801D018283AD184F800C06370A570FA
:10177000E67020716271A27107212448FEF732FDE4
:10178000E071000A2072092218E0212829D02228BD
:1017900025D184F800C06370A570E6702071677170
:1017A000A271E171012901D0022918D1082117483D
:1017B000FEF718FD2072000A60720A22BDE8F041AF
:1017C00012491348FFF787BC84F800C06370A57006
:1017D000E67020716771A271E171F029E6D0BDE871
:1017E000F08184F800C06370A570E67020716771A5
:1017F000A271E1710129D9D00229D7D00329D5D00E
:10180000A529D3D0EBE70000000000202301002031
:101810002004002010B5406A0021C185C184FFF773
:101820003DFA10BD10B5406A0021826B5163426BD6
:1018300012B1526B002A0AD1C184C18501642022F1
:1018400080F83D2080F83E200163FFF7C8F910BD05
:1018500010B5406A0021426B5163826B12B1526B2A
:10186000002A0AD1C184C1850164202280F83D206C
:1018700080F83E200163FFF7B2F910BD0168CA6825
:1018800022F49072CA6001684A6922F001024A613A
:10189000016B012904D10168CA6822F01002CA60F4
:1018A000202180F83E1000210163704708B590F8B0
:1018B0003E10222901D0022008BD82684FF48053D7
:1018C0009A4201D1016921B1816A9A421BD04AB181
:1018D0000AE00268816A5268C2F308020A80816ADB
:1018E000891C08E0026972B10268526802F07F0246
:1018F0000A70816A491C8162C18D491E0904090C64
:10190000C18503D019E002685268F1E70168CA682E
:1019100022F02002CA600168CA6822F48072CA609C
:1019200001684A6922F001024A61202180F83E10D4
:10193000016B012903D0FFF741FB002008BD002106
:1019400001630168CA6822F01002CA6001680A686F
:10195000D20602D50A6849680091818DFFF73EF9E9
:10196000EBE7000070B5044600680169E26821F405
:101970004051114301612169A0680843616908432E
:101980002168CA6841F20C639A430243CA60206826
:101990004169A26921F44071114341611E492068E7
:1019A000884202D1FEF730FF01E0FEF71DFF00EB99
:1019B000C00101EB0012606864218000B2FBF0F30B
:1019C000B3FBF1F36FF018067343B2FBF0F5B2FB13
:1019D000F0F605EB8305322303EB0515B5FBF1F5B6
:1019E000B6FBF1F605F0F00505EB0615B2FBF0F6D7
:1019F000B2FBF0F0B0FBF1F06FF01802504306EBD1
:101A0000800003EB0010B0FBF1F0216800F00F0044
:101A10002844886070BD00000038014081628285E2
:101A2000C28500210164222280F83E2080F83C100B
:101A30000168CA6842F48072CA6001684A6942F06B
:101A400001024A610068C16841F02001C1600020C4
:101A500070472DE9F041984617460E460446069D0C
:101A60001DE0681C1BD02DB1FEF78AFDA0EB08001D
:101A7000A84214D92068C16821F4D071C1602068DF
:101A8000416921F001014161202084F83D0084F882
:101A90003E00002084F83C000320BDE8F08120686F
:101AA000006836EA000004D00020B842D9D00020F7
:101AB000F3E70120F9E700000148FFF7F1B8000063
:101AC00020040020FEE700000FB4054B10B503A969
:101AD000044A029800F028F810BC5DF814FB0000DE
:101AE0007D1C0008200000200907090E002804DBE7
:101AF00000F1E02080F80014704700F00F0000F1C2
:101B0000E02080F8141D704702E008C8121F08C1C9
:101B1000002AFAD170477047002001E001C1121F6E
:101B2000002AFBD1704700002DE9FF4F89B09B468A
:101B30000446002506E025280BD05A460B9990470D
:101B4000641C6D1C20780028F5D10DB02846BDE836
:101B5000F08F0027B8460122474900E0074314F8F8
:101B6000013F203B02FA03F00842F7D120782E28EB
:101B700019D114F8010F47F004072A280ED06FF08E
:101B80002F022078A0F1300109290CD808EB880138
:101B900002EB410100EB0108641CF2E70A98641CA7
:101BA00050F8048B0A9020780028CED0642808D002
:101BB000692806D075281ED05A460B9990476D1C8F
:101BC00058E00A994FF00A0901C90A91002802DA7F
:101BD00040422D2102E0390504D52B218DF820103B
:101BE000012103E0F90704D02021F7E78A4608AE77
:101BF0000DE00021FAE70A994FF00A0901C90A919C
:101C0000F7E74946FEF7C2FA303106F8011D002811
:101C1000F7D1ADEB060000F12009780701D44FF0B1
:101C20000108C84502DDA8EB090000E0002080465D
:101C3000002706E008A85A46C05D0B9990476D1C26
:101C40007F1C5745F6DB04E030205A460B9990473D
:101C50006D1CB8F10001A8F10108F5DC05E016F8EB
:101C6000010B5A460B9990476D1CB9F10001A9F17F
:101C70000109F4DC641C65E70928010013B54FF481
:101C80007A73012269460248FFF7CCF900981CBD1F
:101C900020040020FEF782FCFFF715FDFFF73CFA59
:101CA000FFF756FA01221A491A48FFF771F91A4E3E
:101CB0001A4D1B4C0F2761782078FFF777FC30789E
:101CC000297808431AD1FEF75BFC6168401AB0F529
:101CD000FA7F13D92078192800D127702078401C6A
:101CE000C0B22070122801D1132020706178C0B2D8
:101CF000FFF712FDFEF744FC6060DCE7287803285C
:101D0000D9D10020287020781928D4D12770D2E7A3
:101D100021030020200400200000002001000020FA
:101D20000400002000002110422063308440A550B0
:101D3000C660E770088129914AA16BB18CC1ADD111
:101D4000CEE1EFF13112100273325222B5529442B9
:101D5000F772D662399318837BB35AA3BDD39CC361
:101D6000FFF3DEE36224433420040114E664C77405
:101D7000A44485546AA54BB528850995EEE5CFF5B1
:101D8000ACC58DD55336722611163006D776F66659
:101D90009556B4465BB77AA719973887DFF7FEE701
:101DA0009DD7BCC7C448E5588668A7784008611825
:101DB00002282338CCC9EDD98EE9AFF94889699951
:101DC0000AA92BB9F55AD44AB77A966A711A500AF9
:101DD000333A122AFDDBDCCBBFFB9EEB799B588BA1
:101DE0003BBB1AABA66C877CE44CC55C222C033C45
:101DF000600C411CAEED8FFDECCDCDDD2AAD0BBDF1
:101E0000688D499D977EB66ED55EF44E133E322E98
:101E1000511E700E9FFFBEEFDDDFFCCF1BBF3AAF40
:101E2000599F788F8891A981CAB1EBA10CD12DC19E
:101E30004EF16FE18010A100C230E3200450254034
:101E400046706760B9839893FBA3DAB33DC31CD394
:101E50007FE35EF3B1029012F322D2323542145284
:101E600077625672EAB5CBA5A89589856EF54FE5E0
:101E70002CD50DC5E234C324A014810466744764D4
:101E800024540544DBA7FAB79987B8975FE77EF734
:101E90001DC73CD7D326F2369106B0165766767624
:101EA000154634564CD96DC90EF92FE9C899E98900
:101EB0008AB9ABA94458654806782768C018E10874
:101EC0008238A3287DCB5CDB3FEB1EFBF98BD89BD4
:101ED000BBAB9ABB754A545A376A167AF10AD01AC4
:101EE000B32A923A2EFD0FED6CDD4DCDAABD8BAD20
:101EF000E89DC98D267C076C645C454CA23C832C14
:101F0000E01CC10C1FEF3EFF5DCF7CDF9BAFBABF73
:101F1000D98FF89F176E367E554E745E932EB23E63
:101F2000D10EF01E000000000000000001020304BA
:101F30000607080900000000010203045C1F0008F6
:101F40000000002024000000081B0008801F00087B
:101F50002400002044080000181B000800000000B6
:101F60000F00000000000000000000000100000061
:101F700010000000000000000024F4000000000039
:0400000508000131BD
:00000001FF
